{
  "transactions": [
    {
      "hash": "0x3effb6f1d825eeb8408b370614dd94dbbbc051c96557226e2d7a62bb4b559bc9",
      "transactionType": "CALL",
      "contractName": null,
      "contractAddress": "0x5467e84c33ee0377e001e4ffdedfb12c8fd96fae",
      "function": "mintNft(string)",
      "arguments": [
        "ipfs://bafybeig37ioir76s7mg5oobetncojcm3c3hxasyd4rvid4jqhy4gkaheg4/?filename=0-PUG.json"
      ],
      "transaction": {
        "from": "0xde8e87b6201daa03bad8691eb0b63e6507478bb3",
        "to": "0x5467e84c33ee0377e001e4ffdedfb12c8fd96fae",
        "gas": "0x3d5f6",
        "value": "0x0",
        "input": "0xda86f4a900000000000000000000000000000000000000000000000000000000000000200000000000000000000000000000000000000000000000000000000000000057697066733a2f2f62616679626569673337696f6972373673376d67356f6f6265746e636f6a636d3363336878617379643472766964346a71687934676b61686567342f3f66696c656e616d653d302d5055472e6a736f6e000000000000000000",
        "nonce": "0x23",
        "chainId": "0x6a63227"
      },
      "additionalContracts": [],
      "isFixedGasLimit": false
    }
  ],
  "receipts": [
    {
      "status": "0x1",
      "cumulativeGasUsed": "0x2c6ed",
      "logs": [
        {
          "address": "0x5467e84c33ee0377e001e4ffdedfb12c8fd96fae",
          "topics": [
            "0xddf252ad1be2c89b69c2b068fc378daa952ba7f163c4a11628f55a4df523b3ef",
            "0x0000000000000000000000000000000000000000000000000000000000000000",
            "0x000000000000000000000000de8e87b6201daa03bad8691eb0b63e6507478bb3",
            "0x0000000000000000000000000000000000000000000000000000000000000000"
          ],
          "data": "0x",
          "blockHash": "0x368a7db5bd231726ff7d61391663d0861be286a4e38f9e3e8fcad3ae7e3b2749",
          "blockNumber": "0x76e0bf",
          "transactionHash": "0x3effb6f1d825eeb8408b370614dd94dbbbc051c96557226e2d7a62bb4b559bc9",
          "transactionIndex": "0x0",
          "logIndex": "0x0",
          "removed": false
        }
      ],
      "logsBloom": "0x00000000000000000000000000000000000000000000000000000000000000000000000000000000000000000000000000000000000000000000000000000000000000000000000000000008000000040000000000000000000000000000040000000000020000000000000000000800000000000000000000000010000000000000000000000800000000000000000000000000000000000000000000000000000000000000000000000000000000000000000000000000000400000000000000000002000000000000000000000010000000000000000000000000000020000000020000000000000000000000000000000000000000000000000000000000",
      "type": "0x2",
      "transactionHash": "0x3effb6f1d825eeb8408b370614dd94dbbbc051c96557226e2d7a62bb4b559bc9",
      "transactionIndex": "0x0",
      "blockHash": "0x368a7db5bd231726ff7d61391663d0861be286a4e38f9e3e8fcad3ae7e3b2749",
      "blockNumber": "0x76e0bf",
      "gasUsed": "0x2c6ed",
      "effectiveGasPrice": "0x3",
      "blobGasUsed": "0x0",
      "from": "0xde8e87b6201daa03bad8691eb0b63e6507478bb3",
      "to": "0x5467e84c33ee0377e001e4ffdedfb12c8fd96fae",
      "contractAddress": null
    }
  ],
  "libraries": [],
  "pending": [],
  "returns": {},
  "timestamp": 1741019237,
  "chain": 111555111,
  "commit": "8a026af"
}